S00E0000426C696E6B792E73726563AD
S11300000C9434000C943E000C943E000C943E007E
S11300100C943E000C943E000C943E000C943E0064
S11300200C943E000C943E000C943E000C943E0054
S11300300C943E000C943E000C943E000C943E0044
S11300400C943E000C943E000C943E000C943E0034
S11300500C943E000C943E000C943E000C943E0024
S11300600C943E000C943E0011241FBECFEFD8E048
S1130070DEBFCDBF0E9455000C9459000C940000C3
S11300805F9A2FEF84E39CE0215080409040E1F799
S113009000C000005F982FEF84E39CE02150804073
S11300A09040E1F700C000000895579A0E94400074
S10900B0FDCFF894FFCF20
S9030000FC
